{
  "contractName": "TodoList",
  "abi": [
    {
      "inputs": [],
      "payable": false,
      "stateMutability": "nonpayable",
      "type": "constructor"
    },
    {
      "constant": true,
      "inputs": [
        {
          "internalType": "uint256",
          "name": "",
          "type": "uint256"
        }
      ],
      "name": "tasks",
      "outputs": [
        {
          "internalType": "uint256",
          "name": "id",
          "type": "uint256"
        },
        {
          "internalType": "string",
          "name": "content",
          "type": "string"
        },
        {
          "internalType": "bool",
          "name": "complete",
          "type": "bool"
        }
      ],
      "payable": false,
      "stateMutability": "view",
      "type": "function"
    },
    {
      "constant": true,
      "inputs": [],
      "name": "todoCounter",
      "outputs": [
        {
          "internalType": "uint256",
          "name": "",
          "type": "uint256"
        }
      ],
      "payable": false,
      "stateMutability": "view",
      "type": "function"
    },
    {
      "constant": true,
      "inputs": [],
      "name": "getCounter",
      "outputs": [
        {
          "internalType": "uint256",
          "name": "",
          "type": "uint256"
        }
      ],
      "payable": false,
      "stateMutability": "view",
      "type": "function"
    },
    {
      "constant": false,
      "inputs": [
        {
          "internalType": "string",
          "name": "_content",
          "type": "string"
        }
      ],
      "name": "createTask",
      "outputs": [],
      "payable": false,
      "stateMutability": "nonpayable",
      "type": "function"
    }
  ],
  "bytecode": "0x608060405234801561001057600080fd5b5060408051808201909152600c81526b2632b0b93710283cba3437b760a11b6020820152610046906001600160e01b036102b216565b60408051808201909152600c81526b4c6561726e20446a616e676f60a01b602082015261007b906001600160e01b036102b216565b60408051808201909152600b81526a1319585c9b8814995858dd60aa1b60208201526100af906001600160e01b036102b216565b60408051808201909152601081526f1319585c9b8812985d985cd8dc9a5c1d60821b60208201526100e8906001600160e01b036102b216565b60408051808201909152600e81526d4c6561726e20536f6c696469747960901b602082015261011f906001600160e01b036102b216565b6040805180820190915260118152702632b0b93710213637b1b59021b430b4b760791b6020820152610159906001600160e01b036102b216565b60408051808201909152600f81526e4c6561726e204c6963656e73696e6760881b6020820152610191906001600160e01b036102b216565b60408051808201909152600c81526b2632b0b937102237b1b5b2b960a11b60208201526101c6906001600160e01b036102b216565b60408051808201909152600d81526c4c6561726e2047616e6163686560981b60208201526101fc906001600160e01b036102b216565b60408051808201909152600d81526c4c6561726e2054727566666c6560981b6020820152610232906001600160e01b036102b216565b60408051808201909152600c81526b2632b0b9371023b4ba3630b160a11b6020820152610267906001600160e01b036102b216565b60408051808201909152601581527f4c6561726e2043727970746f2d63757272656e6379000000000000000000000060208201526102ad906001600160e01b036102b216565b6103b9565b60008054600190810180835560408051606081018252828152602080820187815282840187905293865284815291909420845181559151805192936102ff9390850192919091019061031e565b50604091909101516002909101805460ff191691151591909117905550565b828054600181600116156101000203166002900490600052602060002090601f016020900481019282601f1061035f57805160ff191683800117855561038c565b8280016001018555821561038c579182015b8281111561038c578251825591602001919060010190610371565b5061039892915061039c565b5090565b6103b691905b8082111561039857600081556001016103a2565b90565b6103b7806103c86000396000f3fe608060405234801561001057600080fd5b506004361061004c5760003560e01c8063111002aa146100515780634fd218b1146100f95780638ada066e146101135780638d9776721461011b575b600080fd5b6100f76004803603602081101561006757600080fd5b81019060208101813564010000000081111561008257600080fd5b82018360208201111561009457600080fd5b803590602001918460018302840111640100000000831117156100b657600080fd5b91908080601f0160208091040260200160405190810160405280939291908181526020018383808284376000920191909152509295506101c2945050505050565b005b61010161022e565b60408051918252519081900360200190f35b610101610234565b6101386004803603602081101561013157600080fd5b503561023b565b604051808481526020018060200183151515158152602001828103825284818151815260200191508051906020019080838360005b8381101561018557818101518382015260200161016d565b50505050905090810190601f1680156101b25780820380516001836020036101000a031916815260200191505b5094505050505060405180910390f35b600080546001908101808355604080516060810182528281526020808201878152828401879052938652848152919094208451815591518051929361020f939085019291909101906102ea565b50604091909101516002909101805460ff191691151591909117905550565b60005481565b6000545b90565b600160208181526000928352604092839020805481840180548651600296821615610100026000190190911695909504601f810185900485028601850190965285855290949193929091908301828280156102d75780601f106102ac576101008083540402835291602001916102d7565b820191906000526020600020905b8154815290600101906020018083116102ba57829003601f168201915b5050506002909301549192505060ff1683565b828054600181600116156101000203166002900490600052602060002090601f016020900481019282601f1061032b57805160ff1916838001178555610358565b82800160010185558215610358579182015b8281111561035857825182559160200191906001019061033d565b50610364929150610368565b5090565b61023891905b80821115610364576000815560010161036e56fea265627a7a72315820f12f4af2ee985c84d95b65bb867084e15bcf47f5892c63352b762f94e4d96a0c64736f6c63430005100032",
  "source": "// SPDX-License-Identifier: MIT\npragma solidity >=0.5.0 <0.7.0;\n\ncontract TodoList {\n    uint public todoCounter;\n\n    constructor() public {\n        createTask('Learn Python');\n        createTask('Learn Django');\n        createTask('Learn React');\n        createTask('Learn Javascript');\n        createTask('Learn Solidity');\n        createTask('Learn Block Chain');\n        createTask('Learn Licensing');\n        createTask('Learn Docker');\n        createTask('Learn Ganache');\n        createTask('Learn Truffle');\n        createTask('Learn Gitlab');\n        createTask('Learn Crypto-currency');\n    }\n\n    struct Task {\n        uint id;\n        string content;\n        bool complete;\n    }\n\n    function getCounter() external view returns(uint) { return todoCounter;}\n\n    mapping(uint => Task) public tasks;\n\n    function createTask(string memory _content) public {\n        todoCounter++;\n        tasks[todoCounter] = Task(todoCounter, _content, false);\n    }\n}",
  "sourcePath": "/Users/maecana/Desktop/Mae Files/Git/mc_blockchain/contracts/TodoList.sol",
  "compiler": {
    "name": "solc",
    "version": "0.5.16+commit.9c3226ce.Emscripten.clang"
  },
  "schemaVersion": "3.2.2",
  "updatedAt": "2020-07-15T01:56:05.286Z",
  "networkType": "ethereum",
  "devdoc": {
    "methods": {}
  },
  "userdoc": {
    "methods": {}
  }
}