{
  "contractName": "TodoList",
  "abi": [
    {
      "inputs": [],
      "payable": false,
      "stateMutability": "nonpayable",
      "type": "constructor"
    },
    {
      "constant": true,
      "inputs": [
        {
          "internalType": "uint256",
          "name": "",
          "type": "uint256"
        }
      ],
      "name": "tasks",
      "outputs": [
        {
          "internalType": "uint256",
          "name": "id",
          "type": "uint256"
        },
        {
          "internalType": "string",
          "name": "content",
          "type": "string"
        },
        {
          "internalType": "bool",
          "name": "complete",
          "type": "bool"
        }
      ],
      "payable": false,
      "stateMutability": "view",
      "type": "function"
    },
    {
      "constant": false,
      "inputs": [
        {
          "internalType": "string",
          "name": "_content",
          "type": "string"
        }
      ],
      "name": "createTask",
      "outputs": [],
      "payable": false,
      "stateMutability": "nonpayable",
      "type": "function"
    }
  ],
  "bytecode": "0x60806040526000805534801561001457600080fd5b506100596040518060400160405280600c81526020017f4c6561726e20507974686f6e000000000000000000000000000000000000000081525061034a60201b60201c565b61009d6040518060400160405280600c81526020017f4c6561726e20446a616e676f000000000000000000000000000000000000000081525061034a60201b60201c565b6100e16040518060400160405280600b81526020017f4c6561726e20526561637400000000000000000000000000000000000000000081525061034a60201b60201c565b6101256040518060400160405280601081526020017f4c6561726e204a6176617363726970740000000000000000000000000000000081525061034a60201b60201c565b6101696040518060400160405280600e81526020017f4c6561726e20536f6c696469747900000000000000000000000000000000000081525061034a60201b60201c565b6101ad6040518060400160405280601181526020017f4c6561726e20426c6f636b20436861696e00000000000000000000000000000081525061034a60201b60201c565b6101f16040518060400160405280600f81526020017f4c6561726e204c6963656e73696e67000000000000000000000000000000000081525061034a60201b60201c565b6102356040518060400160405280600c81526020017f4c6561726e20446f636b6572000000000000000000000000000000000000000081525061034a60201b60201c565b6102796040518060400160405280600d81526020017f4c6561726e2047616e616368650000000000000000000000000000000000000081525061034a60201b60201c565b6102bd6040518060400160405280600d81526020017f4c6561726e2054727566666c650000000000000000000000000000000000000081525061034a60201b60201c565b6103016040518060400160405280600c81526020017f4c6561726e204769746c6162000000000000000000000000000000000000000081525061034a60201b60201c565b6103456040518060400160405280601581526020017f4c6561726e2043727970746f2d63757272656e6379000000000000000000000081525061034a60201b60201c565b610481565b6000808154809291906001019190505550604051806060016040528060005481526020018281526020016000151581525060016000805481526020019081526020016000206000820151816000015560208201518160010190805190602001906103b59291906103dc565b5060408201518160020160006101000a81548160ff02191690831515021790555090505050565b828054600181600116156101000203166002900490600052602060002090601f016020900481019282601f1061041d57805160ff191683800117855561044b565b8280016001018555821561044b579182015b8281111561044a57825182559160200191906001019061042f565b5b509050610458919061045c565b5090565b61047e91905b8082111561047a576000816000905550600101610462565b5090565b90565b6103ea806104906000396000f3fe608060405234801561001057600080fd5b50600436106100365760003560e01c8063111002aa1461003b5780638d977672146100f6575b600080fd5b6100f46004803603602081101561005157600080fd5b810190808035906020019064010000000081111561006e57600080fd5b82018360208201111561008057600080fd5b803590602001918460018302840111640100000000831117156100a257600080fd5b91908080601f016020809104026020016040519081016040528093929190818152602001838380828437600081840152601f19601f8201169050808301925050505050505091929192905050506101af565b005b6101226004803603602081101561010c57600080fd5b8101908080359060200190929190505050610241565b604051808481526020018060200183151515158152602001828103825284818151815260200191508051906020019080838360005b83811015610172578082015181840152602081019050610157565b50505050905090810190601f16801561019f5780820380516001836020036101000a031916815260200191505b5094505050505060405180910390f35b60008081548092919060010191905055506040518060600160405280600054815260200182815260200160001515815250600160008054815260200190815260200160002060008201518160000155602082015181600101908051906020019061021a929190610310565b5060408201518160020160006101000a81548160ff02191690831515021790555090505050565b6001602052806000526040600020600091509050806000015490806001018054600181600116156101000203166002900480601f0160208091040260200160405190810160405280929190818152602001828054600181600116156101000203166002900480156102f35780601f106102c8576101008083540402835291602001916102f3565b820191906000526020600020905b8154815290600101906020018083116102d657829003601f168201915b5050505050908060020160009054906101000a900460ff16905083565b828054600181600116156101000203166002900490600052602060002090601f016020900481019282601f1061035157805160ff191683800117855561037f565b8280016001018555821561037f579182015b8281111561037e578251825591602001919060010190610363565b5b50905061038c9190610390565b5090565b6103b291905b808211156103ae576000816000905550600101610396565b5090565b9056fea265627a7a723158203166f5a6b01f76df6c6c1268dd97650cd387225ec4b37cf2238ce05b90e6ff2f64736f6c63430005100032",
  "source": "// SPDX-License-Identifier: MIT\npragma solidity >=0.4.21 <0.7.0;\n\ncontract TodoList {\n    uint todoCounter = 0;\n\n    constructor() public {\n        createTask('Learn Python');\n        createTask('Learn Django');\n        createTask('Learn React');\n        createTask('Learn Javascript');\n        createTask('Learn Solidity');\n        createTask('Learn Block Chain');\n        createTask('Learn Licensing');\n        createTask('Learn Docker');\n        createTask('Learn Ganache');\n        createTask('Learn Truffle');\n        createTask('Learn Gitlab');\n        createTask('Learn Crypto-currency');\n    }\n\n    struct Task {\n        uint id;\n        string content;\n        bool complete;\n    }\n\n    mapping(uint => Task) public tasks;\n\n    function createTask(string memory _content) public {\n        todoCounter++;\n\n        tasks[todoCounter] = Task(todoCounter, _content, false);\n    }\n}",
  "sourcePath": "/Users/maecana/Desktop/Mae Files/Git/mc_blockchain/contracts/TodoList.sol",
  "compiler": {
    "name": "solc",
    "version": "0.5.16+commit.9c3226ce.Emscripten.clang"
  },
  "schemaVersion": "3.2.2",
  "updatedAt": "2020-07-14T03:12:20.570Z",
  "devdoc": {
    "methods": {}
  },
  "userdoc": {
    "methods": {}
  }
}