{
  "contractName": "TodoList",
  "abi": [
    {
      "inputs": [],
      "stateMutability": "nonpayable",
      "type": "constructor"
    },
    {
      "anonymous": false,
      "inputs": [
        {
          "indexed": false,
          "internalType": "uint256",
          "name": "id",
          "type": "uint256"
        },
        {
          "indexed": false,
          "internalType": "bool",
          "name": "completed",
          "type": "bool"
        }
      ],
      "name": "TaskCompleted",
      "type": "event"
    },
    {
      "anonymous": false,
      "inputs": [
        {
          "indexed": false,
          "internalType": "uint256",
          "name": "id",
          "type": "uint256"
        },
        {
          "indexed": false,
          "internalType": "string",
          "name": "content",
          "type": "string"
        },
        {
          "indexed": false,
          "internalType": "bool",
          "name": "completed",
          "type": "bool"
        }
      ],
      "name": "TaskCreated",
      "type": "event"
    },
    {
      "inputs": [
        {
          "internalType": "uint256",
          "name": "",
          "type": "uint256"
        }
      ],
      "name": "tasks",
      "outputs": [
        {
          "internalType": "uint256",
          "name": "id",
          "type": "uint256"
        },
        {
          "internalType": "string",
          "name": "content",
          "type": "string"
        },
        {
          "internalType": "bool",
          "name": "completed",
          "type": "bool"
        }
      ],
      "stateMutability": "view",
      "type": "function",
      "constant": true
    },
    {
      "inputs": [],
      "name": "todoCounter",
      "outputs": [
        {
          "internalType": "uint256",
          "name": "",
          "type": "uint256"
        }
      ],
      "stateMutability": "view",
      "type": "function",
      "constant": true
    },
    {
      "inputs": [],
      "name": "getCounter",
      "outputs": [
        {
          "internalType": "uint256",
          "name": "",
          "type": "uint256"
        }
      ],
      "stateMutability": "view",
      "type": "function",
      "constant": true
    },
    {
      "inputs": [
        {
          "internalType": "string",
          "name": "_content",
          "type": "string"
        }
      ],
      "name": "createTask",
      "outputs": [],
      "stateMutability": "nonpayable",
      "type": "function"
    },
    {
      "inputs": [
        {
          "internalType": "uint256",
          "name": "_id",
          "type": "uint256"
        }
      ],
      "name": "toggleCompleted",
      "outputs": [],
      "stateMutability": "nonpayable",
      "type": "function"
    }
  ],
  "bytecode": "0x608060405234801561001057600080fd5b5060408051808201909152600c81526b2632b0b93710283cba3437b760a11b6020820152610046906001600160e01b036102b216565b60408051808201909152600c81526b4c6561726e20446a616e676f60a01b602082015261007b906001600160e01b036102b216565b60408051808201909152600b81526a1319585c9b8814995858dd60aa1b60208201526100af906001600160e01b036102b216565b60408051808201909152601081526f1319585c9b8812985d985cd8dc9a5c1d60821b60208201526100e8906001600160e01b036102b216565b60408051808201909152600e81526d4c6561726e20536f6c696469747960901b602082015261011f906001600160e01b036102b216565b6040805180820190915260118152702632b0b93710213637b1b59021b430b4b760791b6020820152610159906001600160e01b036102b216565b60408051808201909152600f81526e4c6561726e204c6963656e73696e6760881b6020820152610191906001600160e01b036102b216565b60408051808201909152600c81526b2632b0b937102237b1b5b2b960a11b60208201526101c6906001600160e01b036102b216565b60408051808201909152600d81526c4c6561726e2047616e6163686560981b60208201526101fc906001600160e01b036102b216565b60408051808201909152600d81526c4c6561726e2054727566666c6560981b6020820152610232906001600160e01b036102b216565b60408051808201909152600c81526b2632b0b9371023b4ba3630b160a11b6020820152610267906001600160e01b036102b216565b60408051808201909152601581527f4c6561726e2043727970746f2d63757272656e6379000000000000000000000060208201526102ad906001600160e01b036102b216565b610471565b60008054600190810180835560408051606081018252828152602080820187815282840187905293865284815291909420845181559151805192936102ff939085019291909101906103d6565b5060408201518160020160006101000a81548160ff0219169083151502179055509050507f05d0fb833127fc08168556d0e7ca9554fc3f6bc843b3b7d2bf1c35aea6bab660600054826000604051808481526020018060200183151515158152602001828103825284818151815260200191508051906020019080838360005b8381101561039757818101518382015260200161037f565b50505050905090810190601f1680156103c45780820380516001836020036101000a031916815260200191505b5094505050505060405180910390a150565b828054600181600116156101000203166002900490600052602060002090601f016020900481019282601f1061041757805160ff1916838001178555610444565b82800160010185558215610444579182015b82811115610444578251825591602001919060010190610429565b50610450929150610454565b5090565b61046e91905b80821115610450576000815560010161045a565b90565b61061b806104806000396000f3fe608060405234801561001057600080fd5b50600436106100575760003560e01c8063111002aa1461005c578063455f5024146101045780634fd218b1146101215780638ada066e1461013b5780638d97767214610143575b600080fd5b6101026004803603602081101561007257600080fd5b81019060208101813564010000000081111561008d57600080fd5b82018360208201111561009f57600080fd5b803590602001918460018302840111640100000000831117156100c157600080fd5b91908080601f0160208091040260200160405190810160405280939291908181526020018383808284376000920191909152509295506101ea945050505050565b005b6101026004803603602081101561011a57600080fd5b503561030e565b61012961046e565b60408051918252519081900360200190f35b610129610474565b6101606004803603602081101561015957600080fd5b503561047b565b604051808481526020018060200183151515158152602001828103825284818151815260200191508051906020019080838360005b838110156101ad578181015183820152602001610195565b50505050905090810190601f1680156101da5780820380516001836020036101000a031916815260200191505b5094505050505060405180910390f35b60008054600190810180835560408051606081018252828152602080820187815282840187905293865284815291909420845181559151805192936102379390850192919091019061052a565b5060408201518160020160006101000a81548160ff0219169083151502179055509050507f05d0fb833127fc08168556d0e7ca9554fc3f6bc843b3b7d2bf1c35aea6bab660600054826000604051808481526020018060200183151515158152602001828103825284818151815260200191508051906020019080838360005b838110156102cf5781810151838201526020016102b7565b50505050905090810190601f1680156102fc5780820380516001836020036101000a031916815260200191505b5094505050505060405180910390a150565b6103166105a8565b60008281526001602081815260409283902083516060810185528154815281840180548651600296821615610100026000190190911695909504601f810185900485028601850190965285855290949193858401939092908301828280156103bf5780601f10610394576101008083540402835291602001916103bf565b820191906000526020600020905b8154815290600101906020018083116103a257829003601f168201915b50505091835250506002919091015460ff161515602091820152604080830180511590526000858152600180845291902083518155838301518051949550859491936104109385019291019061052a565b50604091820151600291909101805460ff1916911515919091179055818101518151848152901515602082015281517fe21fa966ca5cd02748c0752352d18c48165e61cb55b4c29cccf924b5a95fcff1929181900390910190a15050565b60005481565b6000545b90565b600160208181526000928352604092839020805481840180548651600296821615610100026000190190911695909504601f810185900485028601850190965285855290949193929091908301828280156105175780601f106104ec57610100808354040283529160200191610517565b820191906000526020600020905b8154815290600101906020018083116104fa57829003601f168201915b5050506002909301549192505060ff1683565b828054600181600116156101000203166002900490600052602060002090601f016020900481019282601f1061056b57805160ff1916838001178555610598565b82800160010185558215610598579182015b8281111561059857825182559160200191906001019061057d565b506105a49291506105cb565b5090565b604051806060016040528060008152602001606081526020016000151581525090565b61047891905b808211156105a457600081556001016105d156fea2646970667358221220d563df47fcc869d69e5e1058acbe1a9e83510692793934c4c2d930f04f3f779e64736f6c63430006040033",
  "source": "// SPDX-License-Identifier: MIT\npragma solidity >=0.5.0 <0.7.0;\n\ncontract TodoList {\n    uint public todoCounter;\n\n    constructor() public {\n        createTask('Learn Python');\n        createTask('Learn Django');\n        createTask('Learn React');\n        createTask('Learn Javascript');\n        createTask('Learn Solidity');\n        createTask('Learn Block Chain');\n        createTask('Learn Licensing');\n        createTask('Learn Docker');\n        createTask('Learn Ganache');\n        createTask('Learn Truffle');\n        createTask('Learn Gitlab');\n        createTask('Learn Crypto-currency');\n    }\n\n    struct Task {\n        uint id;\n        string content;\n        bool completed;\n    }\n\n    event TaskCreated(\n        uint id,\n        string content,\n        bool completed\n    );\n\n    event TaskCompleted(\n        uint id,\n        bool completed\n    );\n\n    function getCounter() external view returns(uint) { return todoCounter;}\n\n    mapping(uint => Task) public tasks;\n\n    function createTask(string memory _content) public {\n        todoCounter++;\n        tasks[todoCounter] = Task(todoCounter, _content, false);\n\n        emit TaskCreated(todoCounter, _content, false);\n    }\n\n    function toggleCompleted(uint _id) public {\n        Task memory _task = tasks[_id];\n        _task.completed = !_task.completed;\n        tasks[_id] = _task;\n\n        emit TaskCompleted(_id, _task.completed);\n    }\n}",
  "sourcePath": "/Users/maecana/Desktop/Mae Files/Git/mc_blockchain/contracts/TodoList.sol",
  "compiler": {
    "name": "solc",
    "version": "0.6.4+commit.1dca32f3.Emscripten.clang"
  },
  "schemaVersion": "3.2.2",
  "updatedAt": "2020-07-15T08:30:04.291Z",
  "networkType": "ethereum",
  "devdoc": {
    "methods": {}
  },
  "userdoc": {
    "methods": {}
  }
}